:100000000C94EF030C9417040C9417040C9417042D
:100010000C9417040C9417040C9417040C941704F4
:100020000C9417040C9417040C9417040C94F31EEE
:100030000C9417040C9417040C9417040C941704D4
:100040000C947B1F0C9417040C9417040C94170445
:100050000C9417040C9417040C9417040C941704B4
:100060000C9417040C941704202020204C6F61641A
:10007000696E672E2E2E2E002000A800A100980089
:10008000900084004368616E67652047616D65007C
:100090004F7074696F6E7300436F6E74726F6C7320
:1000A0000053746174757300537572766976616C70
:1000B0000008080103070F0F070301401EFFFFFFA1
:1000C000FFFFFFFFFFF0FC0307F00C3F3FF0FC03D6
:1000D00001F00C3F3FE4F9FE79FCF93E7FE4F9FEC4
:1000E00039FCF93E7FCCF03C03F9F33CFFC0F03C17
:1000F00083F9F03CFF80E7F9CFF3E039FF9CE7F9A3
:10010000CFF3E739FF3CC033CF00CF300F3CC033D3
:10011000CF00CF300FFFFFFFFFFFFFFFFFFFFFFF0D
:10012000FFFFFFFFFF0000000000000000FFFFFFD7
:10013000FFFFFFFFFFFFFFFFFFFFFFFFFF000000CC
:100140000000000000FFFFFFFFFFFFFFFFFFFFFFBA
:10015000FFFFFFFFFFF0FF3F9F0F39E780F0F83C04
:100160001F0F39E780E4F0F87E4F39CFE7E4E3F181
:10017000FE4E31CFE7CCE7F3FCCE739FCFC0E1F06A
:10018000FC0E739FCF80F0F8780C633F9F9CFCFEC1
:1001900079CCE73F9F3CC0E073CCE6013F3CC3E134
:1001A000F3CC06013FFFFFFFFFFFFFFFFF1004FF3F
:1001B000FFFFFFFFFFFFFF1804FFFFFFFFFFFFFF31
:1001C000FFFFFFFFFF3808FFFFFFFFFFFFFFFFFFFD
:1001D000FFFFFFFFFFFFFFFFFFFFFFFFFFFFFFFF2F
:1001E000FFFFFFFFFFFFFFFFFFFFFFFFFFFFFFFF1F
:1001F000FFFFFFFFFFFFFFFFFFFFFFFFFFFFFF0806
:1002000008CCEC3F3C3C0000000808CCEC3F3C181C
:1002100024C6C603053F213F1208120A100A0E1C0D
:100220000E0C1E0C141A14161F161E131E1E1B1E57
:100230001E1F1E3F213F3A2F3A173D173F213F18FF
:100240001F02040A041F0E04040E1F0A1F0A0E0ECA
:100250001F04110E2E252E2F2A2E262929021F02B9
:10026000081F08150E04040E150E15151B151B048A
:100270000604040C040000000017000300031F0A1A
:100280001F16371A1904130A153A000300000E113D
:10029000110E000A040A040E0400300004040400D5
:1002A00010001804031F111F121F101D1517111520
:1002B0001F07041F17151D1F151D01011F1F151FE7
:1002C00017151F000A00003200040A110A0A0A1159
:1002D0000A040115020E11171E051E1F150A0E1124
:1002E0000A1F110E1F15111F05010E111D1F041FDE
:1002F000111F1108100F1F041B1F10101F061F1EB7
:10030000040F0E110E1F09060E112E1F051A1215CD
:1003100009011F011F101F0F180F1F0C1F1B041BAB
:10032000031C03191513001F11030418111F0002E9
:1003300001022020200001020C121E1F120C0C12C0
:10034000120C121F0C1A14041E05242A1E1F021C54
:10035000141D1020201D1F0814111F101E041E1E26
:10036000021C0C120C3E0A040C123E1E040214164F
:100370000A020F120E101E0E100E1E081E120C1274
:1003800026281E322A26041E21001F00211E0401D9
:1003900002013F213F05077F4141417F3E5B4F5BAB
:1003A0003E3E6B4F6B3E183C783C18183C7E3C1828
:1003B0001C577D571C1C5E7F5E1C007E43437E00E5
:1003C0007E73737E007E7F7F7E7F4141417F304818
:1003D0003A060E06297929067F4141417F60703F28
:1003E00002042A1C361C2A7F3E1C080000081C3E02
:1003F0007F14227F22143C3C3C7EFF18423C817ECD
:100400003E6375633E3E616B633E3E636B6B3E04D1
:10041000027F020410207F201008082A1C08081CF4
:100420002A0808143E554122637569756310181C2B
:100430001810040C1C0C04000000000000005F00F9
:10044000000007000700147F147F14042A7F2A107D
:100450002313086462364956205000080703000041
:100460001C2241000041221C002A1C3E1C2A0808B4
:100470003E080800E0600000080808080800606006
:10048000000060100804033E5149453E00427F4091
:100490000062514949462141494D331814127F10D9
:1004A00027454545393C4A4949304121110907361C
:1004B00049494936064949291E00002400000080A8
:1004C0006400000814224100141414141400412282
:1004D000140802015909063E415D594E7C12111261
:1004E0007C7F494949363E414141227F4141221C9E
:1004F0007F494949417F090909013E414151327F04
:100500000808087F00417F41002041413F017F08EA
:100510001422417F404040407F020C027F7F020452
:10052000087F3E4141413E7F090909063E41614144
:10053000BE7F09192946264949493201017F010137
:100540003F4040403F1F2040201F3F4038403F6316
:100550001408146303047804036151494543007F80
:1005600041410003040810600041417F0004020182
:1005700002048080808080000307080020545478A3
:10058000407F284444383844444428384444287F31
:100590003854545418087E09090218A4A49C787F82
:1005A0000804047800447D4000006080847D7F1052
:1005B00010284400417F40007C047804787C0804C3
:1005C00004783844444438FC182424181824241887
:1005D000FC7C080404080854545420043F4444207C
:1005E0003C4040207C1C2040201C3C4020403C449F
:1005F000281028444C9090907C4464544C4400084B
:1006000036410000007F0000004136080018040851
:10061000100C7F4141417F0A4E6F2053442063619B
:100620007264206F720A6E6F204C4F414445522E07
:100630004845580A0A153A45786974001D20466CE9
:10064000617368696E670A20206C6F616465722E41
:100650002E2E0A0A444F4E2754205455524E204FF6
:10066000464621000A0A153A49676E6F7265006DA9
:10067000560A0A504C45415345205455524E204F7E
:10068000464620004C4F5720424154544552592170
:100690002000175344001613780016131400151089
:1006A00020001520100000540A03E181867F3E18C7
:1006B0006D830F0F0E0183866033186DC3198F1879
:1006C00003C38E6033186DE330CF1803C39E6036CA
:1006D00030CDE360CF3006C79E7E3E30CDB360CFD5
:1006E000300CC6F6603330D9B660CF33CFCCF6606D
:1006F00061B0DB1E60CF30D86CE6C061B0DB1E613C
:100700008F19986CC6C063B19B0E330F0FB078C6BB
:10071000FF7E1F1B061E0F050089300802380249A4
:100720007868140000F6E8DBCFC3B8AEA49B928AC9
:10073000827B746E68625C57524E4945413E3A373F
:1007400034312E2C29272523211F1D1C1A19171679
:100750001514131211100F0E0D0C0B0A09080706C1
:10076000450068010000050068013801000005002F
:100770003801680100007E077A070101FF030101CB
:10078000F703000000080002010000030407000056
:100790000000000000000102040810204080010257
:1007A00004081020010204081020040404040404B6
:1007B0000404020202020202030303030303000013
:1007C000000023002600290000000000250028006A
:1007D0002B0000000000240027002A00B00A11248A
:1007E0001FBECFEFD8E0DEBFCDBF11E0A0E0B1E08B
:1007F000EEE0FBE402C005900D92A03DB107D9F7F1
:1008000025E0A0EDB1E001C01D92A230B207E1F7F2
:1008100017E0CEEDD7E004C02297FE010E940D251F
:10082000CC3DD107C9F70E9495210C9485250C94E5
:10083000000083EE91E00E94BA1865E973E083EA54
:1008400092E00E9453114BEB50E068E770E083EEBA
:1008500091E00E94FA161092FB011092A9026EE13B
:1008600083EE91E00C9409132F923F924F925F9286
:100870006F927F928F929F92AF92BF92CF92DF92B0
:10088000EF92FF920F931F93CF93DF9341E2A42E39
:10089000B12CC1E0D0E053E1252E312C69E0862E49
:1008A000912C76E2472E512CEAEF6E2E77247A9423
:1008B00083EE91E00E94AD148823D1F38091D001A2
:1008C0009091D101181619060CF0A7C18091D201A0
:1008D0008111A3C18091DB019091DC0101968A30E6
:1008E000910529F09093DC018093DB0104C0109204
:1008F000DC011092DB0140911201509113018091B3
:10090000DD019091DE01480F591F50931301409370
:10091000120160911401709115018091E101909193
:10092000E201680F791F70931501609314018091A3
:10093000100190911101892B69F080910A0188239F
:1009400049F0E090DF0100E029E032E083EA92E044
:100950000E9466108091100190911101892B89F4F9
:1009600080910A01882369F0E090DF0100E02FEF19
:1009700031E0409112016091140183EA92E00E94FB
:1009800066104FE060E08DEE91E00E94FD0B882341
:1009900069F08091E1019091E20101979093E20169
:1009A0008093E1011092E0011092DF014FE062E0DC
:1009B0008DEE91E00E94FD0B882369F08091E101AA
:1009C0009091E20101969093E2018093E101D0932E
:1009D000E001C093DF018091E1019091E201039772
:1009E00034F082E090E09093E2018093E101809105
:1009F000E1019091E2018E3F9F4F34F48EEF9FEF23
:100A00009093E2018093E10180911401909115018E
:100A10008A3F9F4F34F483E590E0909315018093D3
:100A2000140180911401909115018435910524F0F1
:100A3000709215016092140164E08DEE91E00E94C5
:100A4000F40B81118BC165E08DEE91E00E94F40BF7
:100A5000811184C144E166E08DEE91E00E94FD0BBE
:100A6000882319F081E08093D20180911201909146
:100A70001301C2970CF121E04CE161E088E092E0C3
:100A80000E94361B01E020E041E061E088E092E056
:100A90000E94E11A2EEF47E062E088E092E00E94B7
:100AA000E11A10920A018091D0019091D101019731
:100AB0009093D1018093D00180910A0181111DC0D2
:100AC0005092150140921401B0921301A0921201AC
:100AD0001092E2011092E1011092E0011092DF0108
:100AE000D093DE01C093DD018091DB019091DC01A8
:100AF000099719F481E080930A0125EC31E048E27E
:100B000060E183EA92E00E94070F27EB31E04AE1BF
:100B10006EE183EA92E00E94070F2DEA31E040E1A6
:100B200060E083EA92E00E94070F2DEA31E040E1A5
:100B300064E483EA92E00E94070F40911201509111
:100B40001301609114017091150125ECC22E21E072
:100B5000D22E38E2E32EF12C00E110E02FEF31E04D
:100B600083EE91E00E945819811128C14091120131
:100B700050911301609114017091150129E032E048
:100B800083EE91E00E945819811118C14091120121
:100B9000509113016091140170911501E7EBCE2E75
:100BA000E1E0DE2EFAE1EF2EF12C0EE110E02FEF66
:100BB00031E083EE91E00E94581981111AC04091F2
:100BC000120150911301609114017091150187EB8E
:100BD000C82E81E0D82E9AE1E92EF12C0EE110E02A
:100BE00029E032E083EE91E00E945819882309F44D
:100BF000F8C080911201909113018C3191050CF095
:100C0000EAC03092130120921201D0931101C093D7
:100C100010011092DE011092DD018091D201882333
:100C200009F442C065E973E083EA92E00E9453113F
:100C300098E19093AC0284E08093AD0200E324E558
:100C400040E060E083EA92E00E94370D68E171E0E5
:100C500083EA92E00E94262218E01093AC026DE431
:100C600071E083EA92E00E9426221093AC026DE4C8
:100C700071E083EA92E00E9426221093AC026FE1B9
:100C800071E083EA92E00E94262265E08DEE91E019
:100C90000E94F40B882341F063E172E083EA92E062
:100CA0000E9453111092D2018091D0019091D101F4
:100CB000181619060CF4FCCD6EE183EE91E00E944B
:100CC000091365E973E083EA92E00E94531100E39F
:100CD00024E540E060E083EA92E00E94370D82E084
:100CE0008093AD0280E18093AC026BE271E083EA15
:100CF00092E00E94262288E08093AC0263EC71E0CF
:100D000083EA92E00E94262284E18093AC0286E28C
:100D10008093AD0265E371E083EA92E00E942622AF
:100D200065E08DEE91E00E94F40B882309F4C0CDBC
:100D300088E092E0DF91CF911F910F91FF90EF90AB
:100D4000DF90CF90BF90AF909F908F907F906F90EB
:100D50005F904F903F902F900C94341F21E048E01B
:100D600065E088E092E00E94361B01E020E044E06C
:100D700060E088E092E00E94E11A20E041E061E05A
:100D800088E092E00E94E11A23E048E064E088E015
:100D900092E00E94E11A8091120190911301019753
:100DA00090931301809312018091DD019091DE01F7
:100DB00001979093DE018093DD014CCEB092130138
:100DC000A09212011092DE011092DD01D093110168
:100DD000C093100122CF01969093130180931201CA
:100DE00018CF40911201509113016091140170913C
:100DF00015012DEAC22E21E0D22E30E1E32EF12C96
:100E000000E010E02FEF31E083EE91E00E945819EE
:100E100081114BC040911201509113016091140156
:100E2000709115011DEAC12E11E0D12E00E1E02ED6
:100E3000F12C00E010E029E032E083EE91E00E9426
:100E40005819811132C040911201509113016091E3
:100E50001401709115018DEAC82E81E0D82E90E121
:100E6000E92EF12C04E410E02FEF31E083EE91E065
:100E70000E945819811119C040911201509113011B
:100E80006091140170911501ADEACA2EA1E0DA2E2D
:100E9000B0E1EB2EF12C04E410E029E032E083EE27
:100EA00091E00E945819882369F080911201909175
:100EB00013018A3091050CF08ECF9092130180922D
:100EC0001201A3CE809112019091130197FF05C0EA
:100ED00010921301109212019CCE109211011092E7
:100EE00010018091DB019091DC01892B09F095CEF6
:100EF0008091DD019091DE0101969093DE01809357
:100F0000DD018BCE5F926F927F928F929F92AF9214
:100F1000BF92CF92DF92EF92FF920F931F93CF93E6
:100F2000DF931092FB0145E06AE770E083EE91E009
:100F30000E946715813009F48DC00CF05BC08F3FB3
:100F400009F473C08111FCC268E670E083EA92E0A4
:100F50000E94E22183EE91E00E94211386E290E05C
:100F6000909315018093140181E290E09093130116
:100F7000809312011092E2011092E1011092E001BF
:100F80001092DF0181E090E09093DE018093DD011B
:100F90001092DC011092DB019093DA018093D90169
:100FA00060910B0183EE91E00E94091380910D0185
:100FB00090910E019093D1018093D00181E08093B4
:100FC0000A011092D20163E172E083EA92E00E948A
:100FD0005311DF91CF911F910F91FF90EF90DF9010
:100FE000CF90BF90AF909F908F907F906F905F90C9
:100FF0000C943404833009F4B5C00CF4A1C08430DF
:1010000009F09EC283EE91E0DF91CF911F910F9185
:10101000FF90EF90DF90CF90BF90AF909F908F9018
:101020007F906F905F900C94B9166BEB70E083EE3D
:1010300091E0DF91CF911F910F91FF90EF90DF90A2
:10104000CF90BF90AF909F908F907F906F905F9068
:101050000C943C18C2E0D1E083EE91E00E94AD1404
:101060008823D1F365E08DEE91E00E94F40B882394
:1010700039F088E092E00E94341F1092FB0160C2B8
:1010800000E324E540E060E083EA92E00E94370D4F
:10109000C093AC02C093AD0283EE91E00E94661350
:1010A00090E09093D6018093D50183EE91E00E9469
:1010B00075139093D4018093D3016DE371E083EABB
:1010C00092E00E9407226091D5017091D6014AE01A
:1010D00050E083EA92E00E94DB2262E471E083EA5E
:1010E00092E00E942622C093AC0263EC71E083EA96
:1010F00092E00E942622C093AC0264E471E083EA8D
:1011000092E00E9407226091D3017091D4014AE0DD
:1011100050E083EA92E00E94E322C093AC0263ECC9
:1011200071E083EA92E00E942622C093AC0265E35C
:1011300071E083EA92E00E942622D093FB018CCFDB
:10114000C2E083EE91E00E94AD148823D1F365E004
:101150008DEE91E00E94F40B882369F088E092E024
:101160000E94341FC2E0D0E0CC24C394D12C95E07F
:10117000A92EB12CCFC000E324E540E060E083EA73
:1011800092E00E94370DC093AC02C093AD026FE4B1
:1011900071E083EA92E00E942622C093AC0263ECE5
:1011A00071E083EA92E00E942622C093AC0266E5D9
:1011B00071E083EA92E00E942622C093AC0263ECC5
:1011C00071E083EA92E00E942622C093AC026DE5B2
:1011D00071E083EA92E00E942622B3CF4FE061E003
:1011E0008DEE91E00E94FD0B8111C1C04FE063E0E4
:1011F0008DEE91E00E94FD0B8111CAC000E324E551
:1012000040E060E083EA92E00E94370DF092AD0288
:101210008091D7019091D801892B09F4CAC080919F
:10122000D7019091D801019709F4FDC08091D701B1
:101230009091D801029709F079C0E12C00E021EBF0
:1012400030E04CE162E083EA92E00E946610EE2416
:10125000E39421EB30E04CE16AE483EA92E00E94FF
:1012600066108AE18093AC0264E971E083EA92E05F
:101270000E9426221093AC026DE471E083EA92E0B2
:101280000E94262284E18093AC0280910B01909110
:101290000C018D9731F46AE971E083EA92E00E94D3
:1012A000262280910B0190910C014E9731F462EA55
:1012B00071E083EA92E00E94262280910B019091D6
:1012C0000C010F9731F46AEA71E083EA92E00E9420
:1012D00026224FE060E08DEE91E00E94FD0B81112F
:1012E0001DC14FE062E08DEE91E00E94FD0B88236E
:1012F000C9F080910B0190910C010F9690930C0115
:1013000080930B01CC975CF08FE090E090930C0100
:1013100080930B011AE0F12E0DE2802E912C12E049
:10132000B2E27B2EFAE16F2EA8E15A2E83EE91E015
:101330000E94AD148823D1F365E08DEE91E00E9408
:10134000F40B882309F44ACF88E092E0DF91CF9133
:101350001F910F91FF90EF90DF90CF90BF90AF90D3
:101360009F908F907F906F905F900C94341F80912E
:10137000D7019091D80101969093D8018093D7011D
:10138000039709F033CF1092D8011092D7012ECFD6
:101390008091D7019091D80101979093D8018093C3
:1013A000D701019609F02ACFD093D801C093D70175
:1013B00025CFF092AC0265E671E083EA92E00E94EC
:1013C00026221093AC026DE471E083EA92E00E9461
:1013D00026227092AC0280910F01882331F061E7E0
:1013E00071E083EA92E00E94262280910F01811130
:1013F00006C065E771E083EA92E00E9426224FE092
:1014000064E08DEE91E00E94FD0B882309F407CF84
:1014100080910F01882319F010920F0100CF81E015
:1014200080930F01FCCEE12C00E021EB30E04CE199
:1014300062E083EA92E00E946610EE24E39421EBDE
:1014400030E04CE16AE483EA92E00E946610609228
:10145000AC0269E771E083EA92E00E9426221093D1
:10146000AC026DE471E083EA92E00E942622509281
:10147000AC0280910D0190910E01059731F46FE758
:1014800071E083EA92E00E94262280910D01909102
:101490000E01039731F466E871E083EA92E00E945E
:1014A000262280910D0190910E01019731F46DE893
:1014B00071E083EA92E00E9426224FE060E08DEE28
:1014C00091E00E94FD0B882379F080910D019091AD
:1014D0000E01029790930E0180930D0197FF04C0B7
:1014E000B0920E01A0920D014FE062E08DEE91E00E
:1014F0000E94FD0B882309F499CE80910D019091F3
:101500000E01029690930E0180930D0107970CF443
:101510008DCED0920E01C0920D0188CE80910B012C
:1015200090910C010F9790930C0180930B0118166A
:1015300019060CF4D6CE90920C0180920B01D1CEFC
:10154000DF91CF911F910F91FF90EF90DF90CF909F
:10155000BF90AF909F908F907F906F905F90089515
:101560001092A6021092A50286EB91E09093A4023D
:101570008093A30283EE91E00E94661390E0909323
:10158000D6018093D50183EE91E00E94751390936C
:10159000D4018093D3010895CF93CFB7F89480916D
:1015A000DC02811127C0E4EBF7E08491E0EAF7E088
:1015B0009491E82FF0E0EE0FFF1FEE52F84FA59147
:1015C000B4918C91892321F461E08AE00E94352155
:1015D00061E08AE00E94FC208CB580618CBD8CB5F6
:1015E00080648CBD61E08DE00E94FC2061E08BE0B6
:1015F0000E94FC208091DC028F5F8093DC02CFBFD1
:10160000CF91089521E0FC012083089570E085E0EA
:101610000C947420AF92BF92CF92DF92EF92FF9220
:101620000F931F93CF93DF93EC0189819A812FE071
:10163000289F8001299F100D112485E10E945720C9
:10164000800F911F24E0969587952A95E1F79A835C
:1016500089832881222391F1AC81AD80B12CC12CEA
:10166000D12CE885F9857F0100E010E06E817F8153
:101670009B0140E050E08617970728F0BC01E8176F
:10168000F90708F4BF0180E090E01F921F921F92BB
:10169000AF930E9416236B830F900F900F900F90C3
:1016A00070E085E0DF91CF911F910F91FF90EF9057
:1016B000DF90CF90BF90AF900C947420DF91CF91CA
:1016C0001F910F91FF90EF90DF90CF90BF90AF9060
:1016D0000895FC018CE39FE09383828384E08183FF
:1016E00081E084870895CF93DF93EC018C819D8105
:1016F000892B81F18C858F7151F584E10E945720EF
:10170000BC01882777FD8095982F0E948C2326EEB8
:101710003FE34EEC50E40E9418240E945E239B019C
:101720007B836A836115710581F084E08983FE0102
:1017300040E0848195812817390710F449830AC055
:101740004F5F32964430A9F702C08FEF89838C85B2
:101750008F5F8C87DF91CF910895FC0188E08083B3
:1017600089E0818387E0828386E0838384E08483C9
:1017700082E0858381E186830895DF92EF92FF9274
:101780000F931F93CF93DF937C01EC0100E010E0F7
:10179000DD24DA9462E088810E94FC2088810E9426
:1017A0006B21F701E00FF11F892B21F487818F5FF7
:1017B000878308C08781882349F08F3F11F41782FF
:1017C00001C0D78260E088810E94FC200F5F1F4F1C
:1017D000219607301105F1F6DF91CF911F910F91FE
:1017E000FF90EF90DF900895FC01E60FF11D81E07E
:1017F0009781913009F080E00895262F30E0FC01B8
:10180000E20FF31F8781423028F481508E3F48F069
:1018100080E008958F3FE1F3642F0E948B24913084
:10182000B9F781E008958EBD00000DB407FEFDCF2D
:101830008EB50895DC01643508F053C0403308F0DC
:1018400050C090968C919097342F3595359535955D
:10185000E62FFF27E7FDF095242F2770823099F4BB
:10186000DF01A352BD4F84E53802A00DB11D112444
:101870008C9190E0022E02C0959587950A94E2F72C
:101880008095817009C0833039F446271C968C916D
:10189000482740FF03C014C0811112C084E53802FC
:1018A000E00DF11D1124E352FD4F81E090E0022E86
:1018B00001C0880F0A94EAF780959081982310C0A0
:1018C00084E53802E00DF11D1124E352FD4F81E063
:1018D00090E0022E01C0880F0A94EAF79081982BBD
:1018E000908308951F93CF93DF93EC01162FF89404
:1018F00060E08F850E943521888918161CF460E00D
:101900000E943521812F0E94130C888918161CF41F
:1019100061E00E9435217894DF91CF911F91089565
:1019200028EF31E0EDEDF2E0DF01A9011D92415019
:101930005040E1F7DC0119961C9219971A961C92F7
:101940000895DF92EF92FF920F931F93CF93DF934F
:10195000EC018C858F5F8C878DEDE82E82E0F82E70
:10196000D12C6D2D6064CE010E94720C60E8CE0116
:101970000E94720C61E08F850E94352188891816BB
:101980001CF460E00E94352100E010E0F701E00F58
:10199000F11F80810E94130C0F5F1F4F043511054A
:1019A000A9F7888918161CF461E00E943521D394A8
:1019B00084E5E80EF11C86E0D812D3CF60E4CE01B6
:1019C000DF91CF911F910F91FF90EF90DF900C94DA
:1019D000720CFC0160A361A30895FC0160A341A304
:1019E0000895CF92DF92FF920F931F93CF93DF93CF
:1019F0001F92CDB7DEB76C01062FF42E10E0121740
:101A000054F4412F4F0D602FC60129830E941A0CF8
:101A10001F5F2981F4CF0F90DF91CF911F910F911C
:101A2000FF90DF90CF900895CF92DF92FF920F93B7
:101A30001F93CF93DF931F92CDB7DEB76C01062FB4
:101A4000F42E10E0121754F4612F600F4F2DC601D1
:101A500029830E941A0C1F5F2981F4CF0F90DF9118
:101A6000CF911F910F91FF90DF90CF900895EF924B
:101A7000FF920F931F93CF93DF93EC01F62E142F59
:101A8000E22E0E94140D4FEF400F410F2E2D6F2DAF
:101A9000CE010E94140D202F412F6F2DCE010E94E8
:101AA000F10C6FEF6E0D6F0D202F412FCE01DF91E6
:101AB000CF911F910F91FF90EF900C94F10CDF925A
:101AC000EF92FF920F931F93CF93DF93EC01E62EDB
:101AD000D22EF42E112707FD1095040F111D47FD7E
:101AE0001A958F2D992787FD90958017910744F4BB
:101AF0002D2D4F2D6E2DCE010E94140DF394F1CF9C
:101B0000DF91CF911F910F91FF90EF90DF9008959B
:101B10008F929F92AF92BF92CF92DF92EF92FF92FD
:101B20000F931F93CF93DF93EC01E62ED42E122F49
:101B3000CC24C394C21AB22EB194BB0CF12C802FCA
:101B40008470A82E802F8270982E802F8870882E07
:101B50000170F1160CF04DC0C7FC04C01150B394D5
:101B6000B394CB0CF3948F2D880F8F5FC80EAA20EF
:101B700071F0412F4D0D6F2D6E0DCE010E941A0C8C
:101B80004F2D4D0D612F6E0DCE010E941A0C992024
:101B900071F04D2D411B6F2D6E0DCE010E941A0C60
:101BA0004D2D4F19612F6E0DCE010E941A0C882009
:101BB00071F04F2D4D0D6E2D611BCE010E941A0C40
:101BC000412F4D0D6E2D6F19CE010E941A0C00236E
:101BD00009F4BFCF4D2D4F196E2D611BCE010E9410
:101BE0001A0C4D2D411B6E2D6F19CE010E941A0C3F
:101BF000B0CFDF91CF911F910F91FF90EF90DF90C9
:101C0000CF90BF90AF909F908F9008958F929F92AA
:101C1000AF92BF92CF92DF92EF92FF920F931F93FA
:101C2000CF93DF93EC01B62EA42E122FDD24D39494
:101C3000D21AC22EC194CC0CFF24F394802F817051
:101C4000882E992493949E0C02708FEF8F0D81172C
:101C5000C4F5D7FC04C01150C394C394DC0C8F2D81
:101C6000880F8F5FD80E882099F0212F220F290D21
:101C70004A2D411B6F2D6B0DCE010E94F10C23E00C
:101C80002E0D4A2D4F19612F6B0DCE010E94F10CC4
:101C9000002399F0212F220F290D4A2D411B6B2D76
:101CA0006F19CE010E94F10C23E02E0D4A2D4F1921
:101CB0006B2D611BCE010E94F10CF394E394E3942D
:101CC000C4CFDF91CF911F910F91FF90EF90DF90E4
:101CD000CF90BF90AF909F908F9008959F92AF92BA
:101CE000BF92CF92DF92EF92FF920F931F93CF9309
:101CF000DF93EC01B62EF42EA22EDE2CD194DD0C57
:101D00009D2C920E1E2D160F292D612F0E94140D51
:101D1000CC24CA94C00ECF0C292D4C2D612FCE019E
:101D20000E94140DD00EFE0C2D2D4F2D6B2DCE01CB
:101D30000E94F10CBA0C6FEF6B0D2D2D4F2DCE01C3
:101D40000E94F10C01E02E2D4F2D612FCE010E943B
:101D5000880DDE2CD094DB0C02E02E2D4F2D6D2D46
:101D6000CE010E94880DCE1804E02E2D4C2D6D2D35
:101D7000CE010E94880D08E02E2D4C2D612FCE0142
:101D80000E94880DDF91CF911F910F91FF90EF90EE
:101D9000DF90CF90BF90AF909F900895AF92BF9289
:101DA000CF92DF92EF92FF920F931F93CF93DF9327
:101DB000EC01A62EC42EB22EF02E1E2DE194EE0CB8
:101DC000D12ED60E2E2D2B0D6D2D0E945F0DFA9467
:101DD000FE0CC10E6FEF6A0D6B0D611BEF2C01E065
:101DE000212F4C2DCE010E94060E02E0212F4C2DFA
:101DF0006D2DCE010E94060EDF91CF911F910F91A4
:101E0000FF90EF90DF90CF90BF90AF9008956F92CA
:101E10007F928F929F92AF92BF92CF92DF92EF927A
:101E2000FF920F931F93CF93DF93F901A490319604
:101E30005491FC01F0A064350CF00CC1BB24A7FC4C
:101E4000B094A62FBB27A7FDB095FD01EA0DFB1DA1
:101E50001E161F060CF0FEC040330CF0FBC0C52E52
:101E6000042F112707FD1095E801C50FD11D57FD5F
:101E7000DA951C161D060CF0EDC0E90122969501BD
:101E8000295F3F4F37FF02C0295F3F4F73E0359511
:101E900027957A95E1F747FF0AC0C52EC40E209F0B
:101EA000A001219F500D1124C41BD50B40E00C2D27
:101EB000112707FD1095040F111D47FD1A950133D9
:101EC00011051CF070E3C72EC41A67FD60E0E5350C
:101ED000F10514F0E4E5F0E01E2FFC017485742791
:101EE000862F992787FD9095FC01EA1BFB0BDF01EC
:101EF0005F01F7E0AF22BB24E0E8F0E002C0F59517
:101F0000E795AA94E2F70E2FB7FD179653E0B59523
:101F1000A7955A95E1F7AC0FBD1FE42FE77051E08C
:101F200001C0550FEA95EAF7459545954595E4E5D5
:101F30004E02800D911D112483529D4F40E0DD24FF
:101F4000C7FCD094BB24B3943327E42FF0E0EC1506
:101F5000FD050CF07FC0FD01E490F1E0FF1219C017
:101F6000EC01A02EFD01862E881A9C2E980C91164D
:101F700008F067C09E2C9A2019F09880952A9882C4
:101F8000A69429F43196E4906894AA24A7F821969F
:101F9000ECCFF1101BC0752E7094EC01A02EFD014A
:101FA000862E881A9C2E980C911608F04AC09E2CFA
:101FB0009A2019F0988097209882A69429F4319657
:101FC000E4906894AA24A7F82196ECCFE3E0FE16EB
:101FD00031F0EC01A02EFD01862E881A2EC0752E40
:101FE0007094962EEC01A02EFD019116B0F48E2C6B
:101FF0008A2049F08880692C672660FE02C0852A05
:1020000001C087208882A69429F43196E4906894D0
:10201000AA24A7F893942196E8CF7B2512C09E2C82
:102020009A2019F0988095269882A69429F43196E2
:10203000E4906894AA24A7F821969C2E980C9116F7
:1020400070F3550F19F48C5A9F4F51E04F5FA20F58
:10205000B31F7BCFDF91CF911F910F91FF90EF9036
:10206000DF90CF90BF90AF909F908F907F906F90B8
:102070000895FB01A491842F90E0E3E09595879566
:10208000EA95E1F70296B0E01796F3E0B595A795CB
:10209000FA95E1F72A9FF0012B9FF00D11248E0F86
:1020A0009F1F860F971FFC018491282F30E04770F7
:1020B00080E890E002C0959587954A95E2F728233D
:1020C000392381E0232B09F480E008952F923F9279
:1020D0004F925F926F927F928F929F92AF92BF9238
:1020E000CF92DF92EF92FF920F931F93CF93DF93E4
:1020F000CDB7DEB72A970FB6F894DEBF0FBECDBFBF
:102100006C01262E542F01111CC0E1101AC02A9612
:102110000FB6F894DEBF0FBECDBFDF91CF911F91F8
:102120000F91FF90EF90DF90CF90BF90AF909F9076
:102130008F907F906F905F904F903F902F900C9476
:10214000070FF901849131963490B9016E5F7F4F8A
:102150007A836983A82EB12C9501295F3F4FB3E0A4
:1021600035952795BA95E1F73A87298703702FEFC0
:10217000280F522E10E07FEF730D832D90E09C838B
:102180008B83812F992787FD90958A159B050CF0ED
:1021900071C0812F17FF02C087E0810F682E659400
:1021A00065946594812F877887FF03C08150886F7D
:1021B0008F5FA0E88A2E912C02C0959487948A950F
:1021C000E2F7472EF12C772467FC70948F2D992726
:1021D00087FD9095EB81FC818E179F070CF047C01F
:1021E000A985BA858A9FF0018B9FF00D9A9FF00D0B
:1021F0001124E60DF71D89819A81E80FF91FE491FA
:10220000F0E0E821F921EF2B79F1023039F00330C9
:1022100041F0013049F4452D6F2D08C0652D442D46
:1022200005C0642D412F02C04F2D612FEE2069F0B3
:102230003E2D3370E0FE03C0922F961B692FE1FE06
:1022400005C0A32DA41B4A2F01C030E0620D450F2D
:10225000C6012E833D835F8378870E941A0C3D81DF
:10226000E32E78855F812E81F3944A94AFCF1F5F70
:102270005A9487CF2A960FB6F894DEBF0FBECDBF13
:10228000DF91CF911F910F91FF90EF90DF90CF9052
:10229000BF90AF909F908F907F906F905F904F9086
:1022A0003F902F900895DC01FB0184918F5F14967D
:1022B0008C9314973196E491EF5F1596EC931597F4
:1022C0006E5F7F4F5F967C936E935E970895EF925B
:1022D0000F93CF93DF93EC014E876D872F87E98AA9
:1022E000088B81E0888788A319A28F8363E172E05D
:1022F000CE010E9453110E94CC0A8CB58F7D8CBDFB
:102300008CB58C7F81608CBD8DB581608DBD8CB5A9
:102310008C608CBD61E08E850E94FC2061E08D8523
:102320000E94FC2061E08F850E94FC20898918169C
:102330001CF461E00E94FC20888918161CF461E0FE
:102340000E94FC20898918166CF460E00E943521F7
:102350006AE070E080E090E00E94F41F61E089890B
:102360000E9435218D85992787FD9095FC01E655C2
:10237000F84FE491F0E0EE0FFF1FE853F84F25917E
:1023800034913D8B2C8BFC01EA56F84F84918B8F56
:102390008E85992787FD9095FC01E655F84FE491CD
:1023A000F0E0EE0FFF1FE853F84F259134913B8B7F
:1023B0002A8BFC01EA56F84F84918A8F88899927E5
:1023C00087FD9095FC01E655F84FE491F0E0EE0FA3
:1023D000FF1FE853F84F259134913F8B2E8BFC0162
:1023E000EA56F84F84918C8F8F85992787FD9095B9
:1023F000FC01E655F84FE491F0E0EE0FFF1FE853C3
:10240000F84F25913491398F288FFC01EA56F84F07
:1024100084918D8F61E2CE010E94720C64E1CE0145
:102420000E94720C8B8587FF02C08FE78B876B85BC
:102430006068CE010E94720C60E2CE010E94720CB4
:102440006CE0CE010E94720CCE01DF91CF910F9112
:10245000EF900C94A10C6F927F928F929F92AF920B
:10246000BF92CF92DF92EF92FF920F931F93CF9381
:10247000DF93EC01162FF42EB02EE8A064350CF09B
:1024800081C08FE284170CF47DC0EC81F0E03197BD
:102490000E9FC0010F9F900D1124860F911D67FDA7
:1024A0009A95181619060CF06DC08D81809FC00199
:1024B0001124840F911D47FD9A95181619060CF0EA
:1024C00061C0A62E962EC22ED12C8A2D811B992753
:1024D00087FD90952C8130E0821793070CF051C056
:1024E000215031098217930779F0C29ED001C39E13
:1024F000B00DD29EB00D1124A80FB91FEE8DFF8D27
:10250000EA0FFB1F749001C0712C8F2C6F2C282DAB
:102510002F19332727FD30958D8190E02817390733
:102520006CF570FE11C081E0B81206C0482D6A2D0E
:10253000CE010E941A0C1EC00B2D2B2D462D692D8D
:10254000CE010E945F0D16C089A198A1891791F054
:1025500088A381E0B81206C0482D6A2DCE010E94E2
:102560001A0C07C00B2D2B2D462D692DCE010E9474
:102570005F0DE8A276946B0C8394C9CF9B0CA39457
:10258000A4CFE8A2DF91CF911F910F91FF90EF9020
:10259000DF90CF90BF90AF909F908F907F906F9083
:1025A00008950F93CF93DF93EC01262F6A3039F40F
:1025B0002D8198858A85299F800D112422C06D3038
:1025C00011F108854A8569850E942B1248855C8136
:1025D0002985549F200D112429878F81882399F004
:1025E000332727FD309584E590E0459F80199109B8
:1025F0001124821793073CF49D818A85499F800DA1
:1026000011248A87198681E090E0DF91CF910F91A4
:102610000895CF93DF93FC01462FEC01CF50DF4F9D
:1026200070E088EE93E00E94AB246883842F64E11D
:102630000E948B24811101C081E085ABDF91CF9195
:1026400008958F929F92AF92BF92CF92DF92EF92B6
:10265000FF92CF93DF93EC01CA8CDB8CC094D094B3
:10266000E12CF12C0E94D11F4B015C010E94D11F73
:10267000A5019401209530954095509560957095F1
:10268000809590950E947B249B01AC01C701B60107
:102690000E947B246B017C0189809A80A12CB12C43
:1026A0000E94D11F680D791D8A1D9B1D6C0D7D1D1B
:1026B0008E1D9F1DDF91CF91FF90EF90DF90CF9007
:1026C000BF90AF909F908F900C940E23FC01EF5021
:1026D000FF4F60813A978AE0689FB00111248081A2
:1026E00091810E949724862F0895CF93DF9300D085
:1026F000CDB7DEB72091FE043091FF0421153105DE
:1027000011F422E035E0CE010196821B930B0F906D
:102710000F90DF91CF9108958F929F92AF92BF92C9
:10272000CF92DF92EF92FF920F931F93CF93DF939D
:10273000EC015C0188EFA80EB11CD5018C918823B7
:1027400009F44DC08C3018F41CE0181B01C010E0D7
:10275000FE01E853FF4F81E080836E01B0ECCB0EA9
:10276000D11C60E0C6010E94E90C4E01E5EC8E0E22
:10277000911CD4018C9103E0080F9DE2F92E4F2D9E
:10278000481B410F23E0E22E24E560E0C6010E94D1
:10279000CE0E61E0C6010E94E90CF401808103E0E5
:1027A000080F4F2D481B410F24E560E0C6010E9431
:1027B0006E0EFE01E753FF4F84E080833196D40113
:1027C0008C91181B115D1083CA50DF4F688179818D
:1027D000C6010E94E221F501808181508083DF9152
:1027E000CF911F910F91FF90EF90DF90CF90BF900E
:1027F000AF909F908F900895DF92EF92FF920F938A
:102800001F93CF93DF93EC018C8D9D8D892B09F461
:102810009CC08E0100541F4F40E061E0C8010E943F
:10282000ED0C85E5FE01EC53FF4F9081891B359639
:10283000808331961082698D613009F462C028F07E
:10284000888D653008F074C06FC0CE0185960E94F7
:10285000521C81E0FE01E853FF4F808363E172E088
:10286000C8010E9453111D8E1C8EFE01EA53FF4FBA
:10287000108238EAD32E7E018AE0E80EF11CCE01E8
:102880000E94AD148823D9F364E876E0C8010E9461
:10289000E2216A8D7B8D4AE050E0C8010E94082346
:1028A0006FE676E0C8010E94E2216D2D62956F709F
:1028B00070E04AE050E0C8010E94DB2264E676E066
:1028C000C8010E94E22164E0C7010E94F40B81115B
:1028D0003CC0DA94A1F660E0CE010E94060B83B7FB
:1028E000817F846083BF83B7816083BF83B781604A
:1028F00083BF889583B78E7F83BF83B78E7F83BF67
:10290000BECFCD51DF4F488159816A817B814F70A5
:10291000552766277727483051056105710510F462
:1029200067E009C068E707C0882379F06B5F03C0E0
:10293000882359F06FE2C801DF91CF911F910F9169
:10294000FF90EF90DF900C940922DF91CF911F91BF
:102950000F91FF90EF90DF9008958F929F92AF922A
:10296000BF92EF92FF920F931F93CF93DF93EC01EF
:102970007C0102EFE00EF11CF70180809180A280C3
:10298000B3800E94C51F95018401061B170B280BFD
:10299000390BB901A8015E0111EFA10EB11CF501BF
:1029A000808190E0A0E0B0E08E0103511F4F8417BA
:1029B0009507A607B70750F4F80180819181A2819D
:1029C000B381892B8A2B8B2B09F040C0F8018081C1
:1029D0009181A281B381892B8A2B8B2BA9F57E0152
:1029E000F5E2EF0EF11CC7010E94421CC7010E94D4
:1029F000161DC7010E94411ECE010E948C13CE01FC
:102A00000E94FC137E0120ECE20EF11CC7010E9423
:102A1000A10CFE01EA53FF4F8081811103C0C70161
:102A20000E94900C0E94D11FF80160837183828301
:102A30009383FE01E951FF4FC751DF4F2881398150
:102A4000621B730B7183608380E036C00E94C51FD8
:102A5000F5012081620F711D811D911DF7016083B9
:102A6000718382839383FE01ED51FF4F4081518139
:102A7000628173814F5F5F4F6F4F7F4F4083518300
:102A800062837383F80110821182128213820E9482
:102A9000D11FFE01E751FF4F6083718382839383CF
:102AA000CE010E940A0BCE010A960E94BD0BCE01F8
:102AB00048960E94730B81E0DF91CF911F910F9197
:102AC000FF90EF90BF90AF909F908F9008952F92BE
:102AD0003F924F925F926F927F928F929F92AF92AE
:102AE000BF92CF92DF92EF92FF920F931F93CF93FB
:102AF000DF93CDB7DEB766970FB6F894DEBF0FBE93
:102B0000CDBF9E8B8D8B6F87788B942EFC01EA5303
:102B1000FF4F108288248A941C82A12C30E33B83CF
:102B2000B12C6C018AE0C80ED11C6D887E8895ECB2
:102B3000690E711CED89FE89B5962F01242F30E0B6
:102B40003A8729878D899E8987539F4F9E838D83DE
:102B5000ED89FE89E653FF4FF887EF832D893E8983
:102B600028533F4F3C872B878D899E8989539F4FE0
:102B70009E878D87ED89FE89E054FF4F1F018D8967
:102B80009E890E94AD148823D1F364E0C6010E949F
:102B9000F40B3B81032F112707FD109581113EC0D7
:102BA00065E0C6010E94F40B811138C066E0C601E1
:102BB0000E94F40B811132C03C81311142C044E0CB
:102BC00063E0C6010E94FD0B882321F0B394C2018B
:102BD0000E94511F44E061E0C6010E94FD0B882362
:102BE00021F0BA94C2010E94511F8B2D992787FDB5
:102BF0009095E985FA858E179F0731F0B7FE05C0DD
:102C0000BB24BA94B90C01C0B12CF301808174E0EB
:102C1000A72EA80E8B9DA01811241DC0F301A08023
:102C200064E0C6010E94F40B882309F484C0C20149
:102C30000E94171F8B2CA194A99CA02C1124AA944C
:102C4000AA94C8018A199109A7FC939502970CF4DC
:102C500076C031E03C830A0D111DA7FC1A9517FFC1
:102C600002C00F5F1F4FC801959587959A8389838E
:102C700029812B83ED81FE811082EF81F88580838D
:102C800081E0EB85FC858083ED85FE8510820F85D4
:102C90001889E12CF12C4B2D552747FD509533E039
:102CA000E91420F5E416F50669F4ED81FE81308320
:102CB000F3018081F22FB89EF00D11248F2FEF8148
:102CC000F8858083F80165917491C101298B3C8B53
:102CD0004A8B5B8B0E941422FFEFEF1AFF0A0E5FF4
:102CE0001F4F5B894A893C892989DACF60E0C1019D
:102CF0000E94E90CF30180814981B89E400D1124A6
:102D0000415024E560E0C1010E94140D61E0C10161
:102D10000E94E90CF301808103E0080F4981B89E0D
:102D2000400D1124425053E0E52E24E560E0C1013E
:102D30000E946E0E24CFC2010E94341F7CCF882DCA
:102D400066960FB6F894DEBF0FBECDBFDF91CF9170
:102D50001F910F91FF90EF90DF90CF90BF90AF90B9
:102D60009F908F907F906F905F904F903F902F90AB
:102D700008950F931F93CF93DF938C01EC01C05400
:102D8000DF4FCE010E94900C6CE376E0CE010E94F2
:102D9000E221CE010E94A10C8CB583608CBD8DB563
:102DA0008E7F8DBD8AEB91E0EEEFFFE30995F80190
:102DB000EA53FF4F108267E176E0CE010E941422B1
:102DC000CE010E94A10C065F1F4FC8010E94BD0BDF
:102DD00064E0C8010E94F40B811107C062E370E057
:102DE00080E090E00E94F41FF0CFDF91CF911F911F
:102DF0000F9108952F923F924F925F926F927F9220
:102E00008F929F92AF92BF92CF92DF92EF92FF92FA
:102E10000F931F93CF93DF93CDB7DEB729970FB6EC
:102E2000F894DEBF0FBECDBF998788871B012A01AA
:102E30003C0182EE680E711CF3018081882309F445
:102E400002C181E0E885F985E853FF4F8083E8857A
:102E5000F985E953FF4F1082E885F985EA53FF4F62
:102E60001082E885F985108E8F0100541F4F61E0B4
:102E7000C8010E94E90C888599858B539F4F9C83DC
:102E80008B83C884D98499ECC90ED11CE884F98459
:102E9000EAECEE0EF11C888599858C539F4F9A833E
:102EA0008983E885F985ED51FF4FFE83ED838884A2
:102EB0009984FAE08F0E911CA884B98485E2A80E4B
:102EC000B11C888599850E94AD148823D1F3F10146
:102ED0008491882321F0EB81FC81508101C050E076
:102EE00027EA36E040E060E0C8015F830E94070FF8
:102EF0005F814114510439F04CE0450F920160E0CC
:102F0000C8010E94070FF60110828CE0F701808350
:102F1000B101C8010E94E221E981FA819081892FE3
:102F2000880F890F81958D5AF6018083EB81FC8192
:102F30009081892F880F890F8195835DF7018083A8
:102F4000ED81FE81808184FF03C062EA76E002C0E9
:102F50006EE976E0C8010E941422E981FA8190812D
:102F6000892F880F890F81958D5AF6018083F7018B
:102F700080818F5F8083E885F98586A9882319F091
:102F80006AE976E002C066E976E0C8010E94142290
:102F9000E981FA819081892F880F890F81958D5A57
:102FA000F6018083F70180818F5F808362E976E09C
:102FB000C8010E94142265E0C4010E94F40B88231A
:102FC00051F0E885F98566A96F5FC5010E946E1F03
:102FD000C5010E94511F64E0C4010E94F40B8111DD
:102FE00013C0F3012081822F90E0A0E0B0E0ED81DA
:102FF000FE814081518162817381481759076A07B8
:103000007B07A8F02F3F99F08FEFF30180830885AD
:1030100019850B5D1F4F60E0C8010E94AE1BC801FF
:103020000E94171F81E0E885F985808F0CC066E05B
:10303000C4010E94F40B882309F443CF8885998545
:103040000E94B91634CF29960FB6F894DEBF0FBE92
:10305000CDBFDF91CF911F910F91FF90EF90DF9047
:10306000CF90BF90AF909F908F907F906F905F9028
:103070004F903F902F900895AB0166EA76E00C9454
:10308000FA16E0E8F7E72591349181E02130304CE1
:1030900009F080E00895CF93DF93EC010E9441187E
:1030A0009E0125533F4FDE01AE51BF4F882309F4E7
:1030B0003CC0E6E9F7E78491F9018083E7E9F7E7A7
:1030C000E491EC83E8E9F7E7E491ED83E9E9F7E7D8
:1030D000859194919F838E83EBE9F7E78591949195
:1030E00099878887EDE9F7E7E491EFABEEE9F7E739
:1030F000E491EEABEFE9F7E7E491EC93E0EAF7E770
:10310000859194919D8F8C8FE2EAF7E78591949158
:103110009F8F8E8FE4EAF7E78591949199A388A316
:10312000E6EAF7E78591949120C08CE3F90180836A
:103130001C822FEF2D8380E293E09F838E8384EDAA
:1031400093E09987888781E08FAB8EAB2C938CEAD4
:103150009DE09D8F8C8F8EED9DE09F8F8E8F84E7FD
:103160009EE099A388A38CE39FE09BA38AA3DF91B1
:10317000CF910895CF92DF92EF920F93CF93DF9389
:10318000EC01FC01EF50FF4F82E38083349741E074
:1031900050E060E070E040835183628373833B972B
:1031A0008FEF8083CE010E944B18CE010E94020B4C
:1031B0006FEFCE010E94060B6E018AE0C80ED11C93
:1031C000C6010E94AD0BC6010E94BD0BCE01489600
:1031D0000E94690B3EE0E32E0FE020E14BE06DE042
:1031E000CE0180549F4F0E946711A596CE010E9488
:1031F000821A65E0C6010E94F40B882351F060E05A
:10320000CE01DF91CF910F91EF90DF90CF900C9492
:103210006E1F40E067E177E0CE010E94BE1B41E0F7
:1032200067E177E0CE010E94BE1B42E067E177E0F4
:10323000CE010E94BE1B43E067E177E0CE01DF9143
:10324000CF910F91EF90DF90CF900C94BE1B8F9297
:103250009F92AF92BF92CF92DF92EF92FF920F9325
:103260001F93CF93DF93CDB7DEB7260F371FE2163C
:10327000F30684F4EA0CFB1C6E157F055CF4040F66
:10328000151FC016D10634F4C80CD91C81E04C15AA
:103290005D050CF080E0DF91CF911F910F91FF90C1
:1032A000EF90DF90CF90BF90AF909F908F90089558
:1032B0002F923F924F925F926F927F928F929F9246
:1032C000AF92BF92CF92DF92EF92FF920F931F9334
:1032D000CF93DF93CDB7DEB760970FB6F894DEBF1C
:1032E0000FBECDBF9E878D87788B6F873A013E8357
:1032F0002D8318012701D886CF82F9018491282FC8
:1033000030E03A832983ED81FE813196E4916E2F7E
:1033100070E07C836B83EF81F8858491282F30E007
:103320003A872987EF81F8853196E4916E2F70E016
:103330007C876B874B01A984BA84670178010B8174
:103340001C8129813A816F8578898D859E850E94AF
:103350002719811102C080E079C08F859889821574
:10336000930534F4C101AF85B8898A1B9B0B02C059
:1033700080E090E06414750424F492012619370962
:1033800002C020E030E049855A85420D531D698115
:103390007A81EF85F8896E0F7F1F641775072CF00F
:1033A000BA016E1B7F0B7A8369834B855C85440D64
:1033B000551D6B817C81660D771D641775072CF098
:1033C000DA01A619B709BC83AB83B22E00E010E086
:1033D000782EED84FE84B0ECEB0EF11C6418620EC6
:1033E000CF84C218C80E202E3B2C300E832D90E0C7
:1033F0002B813C81821793070CF0ADCF412C512CCF
:10340000260CD42C472D440D842F90E0E981FA81BD
:103410008E179F07A4F4232D6D817E81C7010E9422
:103420003910882379F04C2D4D0D222D6F81788530
:10343000C7010E943910882329F081E007C00F5F7F
:103440001F4FD1CF3FEF431A530ADBCF60960FB621
:10345000F894DEBF0FBECDBFDF91CF911F910F91CA
:10346000FF90EF90DF90CF90BF90AF909F908F90A4
:103470007F906F905F904F903F902F900895CF93E3
:10348000DF9350E0FA01EE0FFF1FE80FF91F33A999
:1034900024A9E32FF22FE60FF11DE60FF11D259170
:1034A0003491BA01660F771F680F791FFB01ED5841
:1034B000FF4F31832083F90165917491FC01C0892C
:1034C000C69FD02D1124E40FF51FE558FF4FD08380
:1034D000F901A591B4916B2F70E0ED2FF0E0840F0E
:1034E000951F6E177F0720F4F90125913491D32F92
:1034F000FC01E158FF4FDC9FD02D1124D083DF91D8
:10350000CF910895BF92CF92DF92EF92FF920F93E7
:103510001F93CF93DF938C0181E0F801808B7801BA
:10352000C0E0D0E0BB24B394F6E7CF2EF7E0DF2E67
:10353000F801EC0FFD1FE956FF4FB082F701D4AA46
:10354000C3AA4C2F60E0C8010E943F1A2196F2E006
:10355000EF0EF11CC430D10559F761E070E083E053
:103560000E9474208091B100887F81608093B100B7
:10357000F8941092800010928100109285001092B1
:10358000840088E191E09093890080938800809185
:1035900081008860809381008091810081608093A8
:1035A000810080916F00826080936F007894DF913A
:1035B000CF911F910F91FF90EF90DF90CF90BF9030
:1035C00008950F93CF93DF93362F642F043008F0C4
:1035D00049C0323049F158F43323E1F0313009F079
:1035E00041C0402FDF91CF910F910C943F1A33309F
:1035F00051F13430B9F5FC01E00FF11DDF01A5599F
:10360000BF4FEC018889489F602D11246C93E159CC
:10361000FF4F27C0800F911DFC01E15BFF4F4B3036
:1036200008F06AE060831EC0FC01E00FF11DDF01BD
:10363000A55ABF4FEC018889489F602D11246C93D7
:10364000E15AFF4F0EC0FC01E00FF11DDF01AD5943
:10365000BF4FEC018889489F602D11246C93E95974
:10366000FF4F2083DF91CF910F910895CF93DF9388
:10367000243040F530E0FC01E20FF31FDF01A95BCD
:10368000BF4F6C931496EC015889459F402D11242F
:103690004C93A05CBF4F1C92A901440F551F480FCB
:1036A000591FDA01AD57BF4F1D921C92DF01AD5A71
:1036B000BF4F81E08C93D901A351BB4F8C93E95A42
:1036C000FF4F1082DF91CF9108958091ED04882300
:1036D00019F08091E10401C080E09091EE049923FB
:1036E00019F09091E204890F9091EF04992319F059
:1036F0009091E304890F9091F004992319F090912F
:10370000E404890F8093B4000895643030F570E0CC
:103710009C01260F371FF901ED5AFF4F1082389791
:103720001082AB01440F551F480F591FFA01ED5786
:10373000FF4F11821082F901E95AFF4F1082FB01FD
:10374000EF51FB4F1082FB01EB51FB4F1082FB014D
:10375000E351FB4F10820C94651B08951F93CF9388
:10376000DF93EC01162F643028F40E94851BC10FF3
:10377000D11D1C82DF91CF911F910895EF92FF928E
:103780000F931F93CF93DF931F92CDB7DEB77C01CA
:103790008B01443018F5642F49830E94AE1B498188
:1037A000E42FF0E0DF01AA0FBB1FAE0DBF1D9C96FA
:1037B0001C930E939B97DF961D921C92EE0DFF1D9E
:1037C00081E08483DF01A15BBF4F89E08C931C966D
:1037D0001C9218961C92E559FF4F10820F90DF91B2
:1037E000CF911F910F91FF90EF9008950F931F932A
:1037F000CF93DF93EC01462F643008F03EC0062FD4
:1038000010E0DC01A00FB11F8C918823B1F1149658
:103810008C911497811131C05B968C915B97F80164
:10382000EE0FFF1FEC0FFD1F23899489E22FF92F64
:10383000E80FF11DE80FF11D85919491F801EE0F4D
:10384000FF1F8F3F2FEF920711F41C9216C097961F
:103850009C93EC0FFD1F9927880F991F078CF0A1EF
:10386000E02DE80FF91F65917491CE010E94BE1BF7
:10387000C00FD11F8B8D8F5F8B8FDF91CF911F91E9
:103880000F9108951F93CF93DF93EC0110E0612F08
:10389000CE010E94F61B1F5F1430C9F7DF91CF9154
:1038A0001F9108951F93CF93DF93EC0110E0612FD8
:1038B000CE010E94AE1B1F5F1430C9F7DF91CF917C
:1038C0001F910895AF92BF92CF92DF92EF92FF9235
:1038D0000F931F93CF93DF93EC01162F643008F002
:1038E0009AC0E62EF12CDC01AE0DBF1D14968C9112
:1038F0001497882309F48FC0FD01E55BFF4F808199
:10390000811189C0F701EE0FFF1FEC0FFD1F23A5EA
:1039100034A5FF9680819181880F991F820F931F94
:10392000FC0185919491EE0CFF1C009731F5DB961C
:103930008C91DB97882341F0DE01AE0DBF1DDF9631
:103940001D921C92F90117C014961C9214978C9129
:103950008823F1F0CE010E94F61BFE01EE0DFF1D43
:10396000DF01DF968D919C91880F991F03A4F4A528
:10397000E02DE80FF91F859194915E01AE0CBF1CFC
:1039800065012FE3C20ED11CABE2AA0EB11C0DC023
:10399000CE01DF91CF911F910F91FF90EF90DF90BB
:1039A000CF90BF90AF900C94851BBC017695679526
:1039B0007695679580FF21C0AC01F6E05695479556
:1039C000FA95E1F7292F26952695269520514F71D6
:1039D0006F70012FCE010E94E11AF6018081918162
:1039E000019691838083880F991FD501ED91FC91F9
:1039F000E80FF91F85919491D8CF492F6F73212F2C
:103A0000CE010E94361BCE0DDF1DEF968881998175
:103A1000019699838883DF91CF911F910F91FF9039
:103A2000EF90DF90CF90BF90AF9008951F93CF930A
:103A3000DF93EC0110E0612FCE010E94621C1F5F3A
:103A40001430C9F7DF91CF911F910895EF92FF9243
:103A50000F931F93CF93DF937C01643008F00AC16A
:103A6000062F10E0EC01C00FD11FFE01ED5AFF4FF1
:103A70008081882309F4FEC038978081811109C0B4
:103A8000C701DF91CF911F910F91FF90EF900C94A0
:103A9000851B81508083FE01E557FF4F8081811196
:103AA00057C09801220F331F2E0D3F1DF901ED570E
:103AB000FF4F8081918101967097AC01440F551F93
:103AC0000190F081E02DE40FF51F25913491FE0166
:103AD000E157FF4F422F47704083A901B3E056954D
:103AE0004795BA95E1F7DA01B695A7953496232F55
:103AF00026952695208338973A2F3F73D701509605
:103B00002C91329FA02D1124A083F801E352FB4F8A
:103B1000417040839801220F331F2E0D3F1DF90184
:103B2000ED57FF4F91838083DE01A558BF4F2C9145
:103B300030E08217930760F014968C91882329F067
:103B4000281B31093183208303C0C7010E94851BD4
:103B5000FE01E557FF4F808181508083F4973081CB
:103B60003F5F308370972081E45BFF4F4081420FBD
:103B70008FA1480F4887F0976081662369F070E055
:103B8000832F992787FD90950E94AB2434968081DE
:103B9000869F400D11244887888590E0CB966BE383
:103BA00070E00E94AB248887FE01E15BFF4F4081FB
:103BB0004C873C966081662379F0772767FD709586
:103BC000832F992787FD90950E94AB24349680819E
:103BD000869F400D11244C87FE01E559FF4F6081FF
:103BE000662399F0832F992787FD909570E00E94B6
:103BF000AB24CB0162E070E00E94AB2434963081AC
:103C00009C85389F900D11249C878C852F3339F02B
:103C10008A300CF089E087FD80E08C8701C01C862B
:103C2000F894E885F0E0EB5DF84FE491D801A751F6
:103C3000BB4FEC93F701E00FF11FDF01A956BF4F17
:103C40009C91D70151968C91989F802D1124948539
:103C5000899F802D1124E157FF4F9081899F802DEE
:103C60001124F801EB51FB4F8083F801EF51FB4F1A
:103C700080837894DF91CF911F910F91FF90EF9007
:103C800008951F93CF93DF93EC0110E0612FCE01D5
:103C90000E94261D1F5F1430C9F7DF91CF911F913D
:103CA00008956091E504611102C080E023C0809115
:103CB000F1048F5F8093F1049091E9048917A8F3D0
:103CC0008091ED0491E089278093ED041092F10436
:103CD0008091DD04882369F09091160183E4989F18
:103CE000802D1124895B809316010E948B24909370
:103CF000E10481E06091E604662319F19091F204F9
:103D00009F5F9093F2042091EA049217D0F0809183
:103D1000EE0491E089278093EE041092F2048091E2
:103D2000DE04882369F09091160183E4989F802D2A
:103D30001124895B809316010E948B249093E204E6
:103D400081E06091E704662319F19091F3049F5F8D
:103D50009093F3042091EB049217D0F08091EF043C
:103D600091E089278093EF041092F3048091DF049F
:103D7000882369F09091160183E4989F802D112487
:103D8000895B809316010E948B249093E30481E069
:103D90006091E804662319F19091F4049F5F909379
:103DA000F4042091EC049217D0F08091F00491E09B
:103DB00089278093F0041092F4048091E004882312
:103DC00079F09091160183E4989F802D1124895BEE
:103DD000809316010E948B249093E40401C081110A
:103DE0000C94651B08951F920F920FB60F92112429
:103DF0002F933F934F935F936F937F938F939F93F3
:103E0000AF93BF93EF93FF930E94511EFF91EF91E9
:103E1000BF91AF919F918F917F916F915F914F91E2
:103E20003F912F910F900FBE0F901F901895CF9339
:103E3000DF93EC0160E00E94AE1B8EE697E09CA74A
:103E40008BA7FE01FF961182108281E08C83709611
:103E500089E080833C96108238961082C559DF4FE6
:103E60001882DF91CF910895CF93DF93EC0160E04A
:103E70000E94AE1B86E697E09CA78BA7FE01FF96EB
:103E80001182108281E08C83709689E080833C9659
:103E9000108238961082C559DF4F1882DF91CF917A
:103EA0000895CF93DF93EC0160E00E94AE1B80E6A3
:103EB00097E09CA78BA7FE01FF961182108281E0FC
:103EC0008C83709689E080833C96108238961082AD
:103ED000C559DF4F1882DF91CF910895FC01862FDD
:103EE000992787FD9095628970E06F5F7F4F0E94F0
:103EF000AB24818B08951F920F920FB60F9211245D
:103F00002F933F938F939F93AF93BF938091F6042A
:103F10009091F704A091F804B091F9043091F50460
:103F200023E0230F2D3720F40196A11DB11D05C0FC
:103F300026E8230F0296A11DB11D2093F50480935E
:103F4000F6049093F704A093F804B093F9048091D9
:103F5000FA049091FB04A091FC04B091FD04019639
:103F6000A11DB11D8093FA049093FB04A093FC045F
:103F7000B093FD04BF91AF919F918F913F912F918D
:103F80000F900FBE0F901F9018952FB7F894609167
:103F9000F6047091F7048091F8049091F9042FBF12
:103FA00008953FB7F8948091FA049091FB04A09192
:103FB000FC04B091FD0426B5A89B05C02F3F19F065
:103FC0000196A11DB11D3FBF6627782F892F9A2F1B
:103FD000620F711D811D911D42E0660F771F881FC2
:103FE000991F4A95D1F70895CF92DF92EF92FF92F1
:103FF000CF93DF936B017C010E94D11FEB01C114B1
:10400000D104E104F10489F00E945D230E94D11FD4
:104010006C1B7D0B683E734090F381E0C81AD10899
:10402000E108F108C851DC4FEACFDF91CF91FF9052
:10403000EF90DF90CF900895789484B5826084BD2E
:1040400084B5816084BD85B5826085BD85B581609C
:1040500085BDEEE6F0E0808181608083E1E8F0E0FC
:104060001082808182608083808181608083E0E82B
:10407000F0E0808181608083E1EBF0E0808184600A
:104080008083E0EBF0E0808181608083EAE7F0E00C
:104090008081846080838081826080838081816070
:1040A00080838081806880831092C10008958E3063
:1040B00008F08E5087702091170190E4299F90019D
:1040C0001124822B80937C0080917A0080648093FD
:1040D0007A0080917A0086FDFCCF80917800209153
:1040E000790090E0922B08951F93CF93DF93182FC0
:1040F000EB0161E00E94FC20209711F460E004C015
:10410000CF3FD10539F461E0812FDF91CF911F912D
:104110000C943521E12FF0E0EE57F84FE491E330B5
:10412000F9F048F4E130B9F0E230A1F584B58062ED
:1041300084BDC8BD34C0E730E9F0E83019F1E4309F
:1041400049F580918000806280938000D0938B003D
:10415000C0938A0024C084B5806884BDC7BD1FC0D9
:1041600080918000806880938000D0938900C09304
:10417000880015C08091B00080688093B000C09323
:10418000B3000DC08091B00080628093B000C093F6
:10419000B40005C0C038D1050CF0B5CFAFCFDF916A
:1041A000CF911F910895833081F028F4813099F0E8
:1041B0008230A1F008958730A9F08830B9F08430BA
:1041C000D1F4809180008F7D03C0809180008F7733
:1041D00080938000089584B58F7702C084B58F7D69
:1041E00084BD08958091B0008F7703C08091B000A6
:1041F0008F7D8093B0000895CF93DF9390E0FC0112
:10420000EA56F84F2491FC01E655F84F8491882333
:1042100049F190E0880F991FFC01EE52F84FA591EB
:10422000B4918853984FFC01C591D4919FB7611107
:1042300008C0F8948C91209582238C9388818223E6
:104240000AC0623051F4F8948C91322F3095832358
:104250008C938881822B888304C0F8948C91822B64
:104260008C939FBFDF91CF9108950F931F93CF93AE
:10427000DF931F92CDB7DEB7282F30E0F901EE575C
:10428000F84F8491F901EA56F84F1491F901E65577
:10429000F84F04910023C9F0882321F069830E941C
:1042A000D3206981E02FF0E0EE0FFF1FE853F84FB5
:1042B000A591B4919FB7F8948C91611103C01095AA
:1042C000812301C0812B8C939FBF0F90DF91CF91F1
:1042D0001F910F910895CF93DF93282F30E0F901BC
:1042E000EE57F84F8491F901EA56F84FD491F9014D
:1042F000E655F84FC491CC2391F081110E94D32050
:10430000EC2FF0E0EE0FFF1FE254F84FA591B491AF
:104310002C912D2381E090E021F480E002C080E028
:1043200090E0DF91CF91089508950E941C200E9493
:1043300094210E941904C0E0D0E00E9482072097D7
:10434000E1F30E940000F9CFCF92DF92EF92FF924B
:104350000F931F93CF93DF936C017A01EB01E60E6D
:10436000F71E00E010E0CE15DF0561F06991D6017F
:10437000ED91FC910190F081E02DC6010995080FA7
:10438000191FF1CFC801DF91CF911F910F91FF90BD
:10439000EF90DF90CF9008956115710581F0DB01FA
:1043A0000D900020E9F7AD0141505109461B570B14
:1043B000DC01ED91FC910280F381E02D099480E015
:1043C00090E00895EF92FF920F931F93CF93DF93A6
:1043D0008C01FB01C0E0D0E064917F018FEFE81A0F
:1043E000F80A662361F0D801ED91FC910190F0810B
:1043F000E02DC8010995C80FD91FF701EDCFCE01F7
:10440000DF91CF911F910F91FF90EF9008950C9441
:10441000CC21DC01ED91FC910190F081E02D09941B
:1044200061EC71E00C94CC210F931F93CF93DF9339
:10443000EC010E94E2218C01CE010E941022800F2B
:10444000911FDF91CF911F910F9108950F931F93AB
:10445000CF93DF93EC010E94CC218C01CE010E940E
:104460001022800F911FDF91CF911F910F9108951E
:104470008F929F92AF92BF92CF92DF92EF92FF9274
:104480000F931F93CF93DF93CDB7DEB7A1970FB6EE
:10449000F894DEBF0FBECDBF7C01C42EE52FCB014B
:1044A000D22E19A221E02D1510F02AE0D22E8E0175
:1044B0000F5D1F4F8D2C912CA12CB12C6C2D7E2FBC
:1044C000A50194010E94BF248C2DD29E8019112435
:1044D000015011098A3014F4805D01C0895CF80133
:1044E0008083211531054105510521F0C22EE32FAE
:1044F000CA01E4CFB801C7010E94CC21A1960FB632
:10450000F894DEBF0FBECDBFDF91CF911F910F9109
:10451000FF90EF90DF90CF90BF90AF909F908F90E3
:104520000895CF92DF92EF92FF920F931F93CF9354
:10453000DF93EC016A017B012115310579F4E881F3
:10454000F9810190F081E02D642FDF91CF911F91CF
:104550000F91FF90EF90DF90CF9009942A303105B2
:10456000E9F477FF1AC06DE20E9409228C0144270A
:104570005527BA014C195D096E097F092AE0CE0161
:104580000E943822800F911FDF91CF911F910F91D0
:10459000FF90EF90DF90CF9008952AE0B701A60139
:1045A000CE01DF91CF911F910F91FF90EF90DF909F
:1045B000CF900C9438229A01AB01662757FD609585
:1045C000762F0C9491220F931F93CF93DF93EC01DE
:1045D0009A01AB01662757FD6095762F0E949122C4
:1045E0008C01CE010E941022800F911FDF91CF918C
:1045F0001F910F9108952115310541F4DC01ED91D2
:10460000FC910190F081E02D642F09940C943822E4
:104610009A01AB0160E070E00C94FB22611571051A
:104620008105910511F00C94742508954F925F92C5
:104630006F927F92AF92BF92CF92DF92EF92FF92F2
:104640000F931F93CF93DF93CDB7DEB729013A01C4
:10465000621B730B840B950B29893A894B895C8902
:104660002A193B094C095D09298B3A8B4B8B5C8BD2
:104670009B01AC0169897A898B899C890E947B2482
:10468000E418F50806091709A80197010E94E1241A
:104690002A0D3B1D4C1D5D1DCA01B901DF91CF9153
:1046A0001F910F91FF90EF90DF90CF90BF90AF9050
:1046B0007F906F905F904F900895089598D088F004
:1046C0009F5790F0B92F9927B751A0F0D1F0660FFE
:1046D000771F881F991F1AF0BA95C9F712C0B13019
:1046E00081F09FD0B1E008959CC0672F782F882774
:1046F000B85F39F0B93FCCF3869577956795B39558
:10470000D9F73EF490958095709561957F4F8F4FC6
:104710009F4F0895E89409C097FB3EF490958095CB
:10472000709561957F4F8F4F9F4F9923A9F0F92F77
:1047300096E9BB279395F695879577956795B795F5
:10474000F111F8CFFAF4BB0F11F460FF1BC06F5FDB
:104750007F4F8F4F9F4F16C0882311F096E911C0ED
:10476000772321F09EE8872F762F05C0662371F00E
:1047700096E8862F70E060E02AF09A95660F771F22
:10478000881FDAF7880F9695879597F9089597F916
:104790009F6780E870E060E008959FEF80EC0895E7
:1047A00000240A9416161706180609060895002410
:1047B0000A9412161306140605060895092E03948A
:1047C000000C11F4882352F0BB0F40F4BF2B11F4FE
:1047D00060FF04C06F5F7F4F8F4F9F4F089557FD5D
:1047E0009058440F551F59F05F3F71F04795880F5F
:1047F00097FB991F61F09F3F79F0879508951216F6
:1048000013061406551FF2CF4695F1DF08C01616A1
:1048100017061806991FF1CF869571056105089452
:104820000895E894BB2766277727CB0197F9089569
:104830000BD0C4CFB5DF28F0BADF18F0952309F00C
:10484000A6CFABCF1124EECFCADFA0F3959FD1F353
:10485000950F50E0551F629FF001729FBB27F00D2E
:10486000B11D639FAA27F00DB11DAA1F649F662783
:10487000B00DA11D661F829F2227B00DA11D621FD2
:10488000739FB00DA11D621F839FA00D611D221F8C
:10489000749F3327A00D611D231F849F600D211D70
:1048A000822F762F6A2F11249F5750408AF0E1F013
:1048B00088234AF0EE0FFF1FBB1F661F771F881F5C
:1048C00091505040A9F79E3F510570F060CFAACF9C
:1048D0005F3FECF3983EDCF3869577956795B79547
:1048E000F795E7959F5FC1F7FE2B880F911D969571
:1048F000879597F90895DB018F939F930E94002578
:10490000BF91AF91A29F800D911DA39F900DB29F6B
:10491000900D11240895991B79E004C0991F9617F2
:1049200008F0961B881F7A95C9F780950895AA1BF1
:10493000BB1B51E107C0AA1FBB1FA617B70710F08A
:10494000A61BB70B881F991F5A95A9F780959095BC
:10495000BC01CD01089597FB072E16F4009407D0F3
:1049600077FD09D00E94972407FC05D03EF490956E
:1049700081959F4F0895709561957F4F0895A1E2AD
:104980001A2EAA1BBB1BFD010DC0AA1FBB1FEE1FC9
:10499000FF1FA217B307E407F50720F0A21BB30B14
:1049A000E40BF50B661F771F881F991F1A9469F790
:1049B00060957095809590959B01AC01BD01CF01EC
:1049C0000895052E97FB1EF400940E94F82457FDCD
:1049D00007D00E94BF2407FC03D04EF40C94F824A7
:1049E00050954095309521953F4F4F4F5F4F08951B
:1049F00090958095709561957F4F8F4F9F4F08954B
:104A00000E941125A59F900DB49F900DA49F800D2D
:104A1000911D11240895EE0FFF1F0590F491E02DD4
:104A20000994A29FB001B39FC001A39F700D811D87
:104A30001124911DB29F700D811D1124911D0895A7
:104A40008F929F92AF92BF92CF92DF92EF92FF929E
:104A5000CF93DF93EC01688179818A819B81611515
:104A600071058105910521F464E279ED8BE597E00C
:104A70002DE133EF41E050E00E94E12449015A0169
:104A80009B01AC01A7EAB1E40E9400256B017C0107
:104A9000ACEEB4EFA50194010E948025C60ED71E8E
:104AA000E81EF91EF7FE06C081E0C81AD108E10829
:104AB00080E8F80AC882D982EA82FB82C701B6017F
:104AC0009F77DF91CF91FF90EF90DF90CF90BF90D5
:104AD000AF909F908F9008950E942025089586E0C2
:104AE00091E00E94202508956093060170930701CC
:104AF00080930801909309010895B7FF0C94002555
:0E4B00000E940025821B930B0895F894FFCFAE
:104B0E0000000205800001000000011E00030001EC
:104B1E000100240026000101504155534544001662
:104B2E0020746F20726573756D6500596F75206402
:104B3E0069656421005072657373201600435055E9
:104B4E003A002500467265652052414D3A20001507
:104B5E00204A756D700016204A756D700017205032
:104B6E006175736500507465726F64616374796CFE
:104B7E0000594553004E4F21004C6976657300462F
:104B8E006976652E2E0054687265653F004F6E651E
:104B9E0021212100537065656400466173742121E3
:104BAE002100526567756C617200536C6F772E2E03
:104BBE002E0000000000D112A4214C4F414445525A
:104BCE00000D0A006E616E00696E66006F766600FB
:00000001FF
